{
  "address": "0x924c3b442d89A23b9D3536eF0cc6f5Ee0B140Ca6",
  "abi": [
    {
      "inputs": [
        {
          "internalType": "uint256",
          "name": "price_",
          "type": "uint256"
        }
      ],
      "stateMutability": "nonpayable",
      "type": "constructor"
    },
    {
      "inputs": [],
      "name": "getPrice",
      "outputs": [
        {
          "internalType": "uint256",
          "name": "",
          "type": "uint256"
        }
      ],
      "stateMutability": "view",
      "type": "function"
    }
  ],
  "transactionHash": "0x404dce3f4f55389e045e9b33319c67ef745d4a52cc92beb155513183d5c26ec4",
  "args": [
    "5"
  ],
  "numDeployments": 1,
  "solcInputHash": "5cc5d0a9b3d2623a1fe6bf2a9e867f5a",
  "bytecode": "0x608060405234801561001057600080fd5b506040516100ad3803806100ad83398101604081905261002f91610037565b600055610050565b60006020828403121561004957600080fd5b5051919050565b604f8061005e6000396000f3fe6080604052348015600f57600080fd5b506004361060285760003560e01c806398d5fdca14602d575b600080fd5b60005460405190815260200160405180910390f3fea164736f6c6343000811000a",
  "deployedBytecode": "0x6080604052348015600f57600080fd5b506004361060285760003560e01c806398d5fdca14602d575b600080fd5b60005460405190815260200160405180910390f3fea164736f6c6343000811000a",
  "devdoc": {
    "kind": "dev",
    "methods": {
      "getPrice()": {
        "returns": {
          "_0": "The price of the asset*"
        }
      }
    },
    "version": 1
  },
  "userdoc": {
    "kind": "user",
    "methods": {
      "getPrice()": {
        "notice": "Returns the asset price in the base currency"
      }
    },
    "version": 1
  },
  "storageLayout": {
    "storage": [
      {
        "astId": 16988,
        "contract": "contracts/test/MockPriceOracle.sol:MockPriceOracle",
        "label": "_price",
        "offset": 0,
        "slot": "0",
        "type": "t_uint256"
      }
    ],
    "types": {
      "t_uint256": {
        "encoding": "inplace",
        "label": "uint256",
        "numberOfBytes": "32"
      }
    }
  }
}