{
  "address": "0x7a9bED038AbD992FfB7Eb24C92612770e3210F3a",
  "abi": [
    {
      "inputs": [
        {
          "internalType": "string",
          "name": "name_",
          "type": "string"
        },
        {
          "internalType": "string",
          "name": "symbol_",
          "type": "string"
        },
        {
          "internalType": "address",
          "name": "priceOracle_",
          "type": "address"
        }
      ],
      "stateMutability": "nonpayable",
      "type": "constructor"
    },
    {
      "anonymous": false,
      "inputs": [
        {
          "indexed": true,
          "internalType": "address",
          "name": "owner",
          "type": "address"
        },
        {
          "indexed": true,
          "internalType": "address",
          "name": "spender",
          "type": "address"
        },
        {
          "indexed": false,
          "internalType": "uint256",
          "name": "value",
          "type": "uint256"
        }
      ],
      "name": "Approval",
      "type": "event"
    },
    {
      "anonymous": false,
      "inputs": [
        {
          "indexed": true,
          "internalType": "address",
          "name": "caller",
          "type": "address"
        },
        {
          "indexed": false,
          "internalType": "uint256",
          "name": "value",
          "type": "uint256"
        }
      ],
      "name": "Burn",
      "type": "event"
    },
    {
      "anonymous": false,
      "inputs": [
        {
          "indexed": true,
          "internalType": "address",
          "name": "caller",
          "type": "address"
        },
        {
          "indexed": false,
          "internalType": "uint256",
          "name": "value",
          "type": "uint256"
        }
      ],
      "name": "Mint",
      "type": "event"
    },
    {
      "anonymous": false,
      "inputs": [
        {
          "indexed": false,
          "internalType": "address",
          "name": "account",
          "type": "address"
        }
      ],
      "name": "Paused",
      "type": "event"
    },
    {
      "anonymous": false,
      "inputs": [
        {
          "indexed": true,
          "internalType": "bytes32",
          "name": "role",
          "type": "bytes32"
        },
        {
          "indexed": true,
          "internalType": "bytes32",
          "name": "previousAdminRole",
          "type": "bytes32"
        },
        {
          "indexed": true,
          "internalType": "bytes32",
          "name": "newAdminRole",
          "type": "bytes32"
        }
      ],
      "name": "RoleAdminChanged",
      "type": "event"
    },
    {
      "anonymous": false,
      "inputs": [
        {
          "indexed": true,
          "internalType": "bytes32",
          "name": "role",
          "type": "bytes32"
        },
        {
          "indexed": true,
          "internalType": "address",
          "name": "account",
          "type": "address"
        },
        {
          "indexed": true,
          "internalType": "address",
          "name": "sender",
          "type": "address"
        }
      ],
      "name": "RoleGranted",
      "type": "event"
    },
    {
      "anonymous": false,
      "inputs": [
        {
          "indexed": true,
          "internalType": "bytes32",
          "name": "role",
          "type": "bytes32"
        },
        {
          "indexed": true,
          "internalType": "address",
          "name": "account",
          "type": "address"
        },
        {
          "indexed": true,
          "internalType": "address",
          "name": "sender",
          "type": "address"
        }
      ],
      "name": "RoleRevoked",
      "type": "event"
    },
    {
      "anonymous": false,
      "inputs": [
        {
          "indexed": true,
          "internalType": "address",
          "name": "from",
          "type": "address"
        },
        {
          "indexed": true,
          "internalType": "address",
          "name": "to",
          "type": "address"
        },
        {
          "indexed": false,
          "internalType": "uint256",
          "name": "value",
          "type": "uint256"
        }
      ],
      "name": "Transfer",
      "type": "event"
    },
    {
      "anonymous": false,
      "inputs": [
        {
          "indexed": false,
          "internalType": "address",
          "name": "account",
          "type": "address"
        }
      ],
      "name": "Unpaused",
      "type": "event"
    },
    {
      "stateMutability": "payable",
      "type": "fallback"
    },
    {
      "inputs": [],
      "name": "DEFAULT_ADMIN_ROLE",
      "outputs": [
        {
          "internalType": "bytes32",
          "name": "",
          "type": "bytes32"
        }
      ],
      "stateMutability": "view",
      "type": "function"
    },
    {
      "inputs": [],
      "name": "DOMAIN_SEPARATOR",
      "outputs": [
        {
          "internalType": "bytes32",
          "name": "",
          "type": "bytes32"
        }
      ],
      "stateMutability": "view",
      "type": "function"
    },
    {
      "inputs": [],
      "name": "MINTER_ROLE",
      "outputs": [
        {
          "internalType": "bytes32",
          "name": "",
          "type": "bytes32"
        }
      ],
      "stateMutability": "view",
      "type": "function"
    },
    {
      "inputs": [],
      "name": "PAUSER_ROLE",
      "outputs": [
        {
          "internalType": "bytes32",
          "name": "",
          "type": "bytes32"
        }
      ],
      "stateMutability": "view",
      "type": "function"
    },
    {
      "inputs": [
        {
          "internalType": "address",
          "name": "owner",
          "type": "address"
        },
        {
          "internalType": "address",
          "name": "spender",
          "type": "address"
        }
      ],
      "name": "allowance",
      "outputs": [
        {
          "internalType": "uint256",
          "name": "",
          "type": "uint256"
        }
      ],
      "stateMutability": "view",
      "type": "function"
    },
    {
      "inputs": [
        {
          "internalType": "address",
          "name": "spender",
          "type": "address"
        },
        {
          "internalType": "uint256",
          "name": "amount",
          "type": "uint256"
        }
      ],
      "name": "approve",
      "outputs": [
        {
          "internalType": "bool",
          "name": "",
          "type": "bool"
        }
      ],
      "stateMutability": "nonpayable",
      "type": "function"
    },
    {
      "inputs": [
        {
          "internalType": "address",
          "name": "account",
          "type": "address"
        }
      ],
      "name": "balanceOf",
      "outputs": [
        {
          "internalType": "uint256",
          "name": "",
          "type": "uint256"
        }
      ],
      "stateMutability": "view",
      "type": "function"
    },
    {
      "inputs": [
        {
          "internalType": "uint256",
          "name": "amount_",
          "type": "uint256"
        }
      ],
      "name": "burn",
      "outputs": [],
      "stateMutability": "nonpayable",
      "type": "function"
    },
    {
      "inputs": [
        {
          "internalType": "address",
          "name": "account",
          "type": "address"
        },
        {
          "internalType": "uint256",
          "name": "amount",
          "type": "uint256"
        }
      ],
      "name": "burnFrom",
      "outputs": [],
      "stateMutability": "nonpayable",
      "type": "function"
    },
    {
      "inputs": [],
      "name": "decimals",
      "outputs": [
        {
          "internalType": "uint8",
          "name": "",
          "type": "uint8"
        }
      ],
      "stateMutability": "view",
      "type": "function"
    },
    {
      "inputs": [
        {
          "internalType": "address",
          "name": "spender",
          "type": "address"
        },
        {
          "internalType": "uint256",
          "name": "subtractedValue",
          "type": "uint256"
        }
      ],
      "name": "decreaseAllowance",
      "outputs": [
        {
          "internalType": "bool",
          "name": "",
          "type": "bool"
        }
      ],
      "stateMutability": "nonpayable",
      "type": "function"
    },
    {
      "inputs": [
        {
          "internalType": "address",
          "name": "token",
          "type": "address"
        },
        {
          "internalType": "uint256",
          "name": "amount",
          "type": "uint256"
        }
      ],
      "name": "flashFee",
      "outputs": [
        {
          "internalType": "uint256",
          "name": "",
          "type": "uint256"
        }
      ],
      "stateMutability": "view",
      "type": "function"
    },
    {
      "inputs": [
        {
          "internalType": "contract IERC3156FlashBorrower",
          "name": "receiver",
          "type": "address"
        },
        {
          "internalType": "address",
          "name": "token",
          "type": "address"
        },
        {
          "internalType": "uint256",
          "name": "amount",
          "type": "uint256"
        },
        {
          "internalType": "bytes",
          "name": "data",
          "type": "bytes"
        }
      ],
      "name": "flashLoan",
      "outputs": [
        {
          "internalType": "bool",
          "name": "",
          "type": "bool"
        }
      ],
      "stateMutability": "nonpayable",
      "type": "function"
    },
    {
      "inputs": [
        {
          "internalType": "bytes32",
          "name": "role",
          "type": "bytes32"
        }
      ],
      "name": "getRoleAdmin",
      "outputs": [
        {
          "internalType": "bytes32",
          "name": "",
          "type": "bytes32"
        }
      ],
      "stateMutability": "view",
      "type": "function"
    },
    {
      "inputs": [
        {
          "internalType": "bytes32",
          "name": "role",
          "type": "bytes32"
        },
        {
          "internalType": "address",
          "name": "account",
          "type": "address"
        }
      ],
      "name": "grantRole",
      "outputs": [],
      "stateMutability": "nonpayable",
      "type": "function"
    },
    {
      "inputs": [
        {
          "internalType": "bytes32",
          "name": "role",
          "type": "bytes32"
        },
        {
          "internalType": "address",
          "name": "account",
          "type": "address"
        }
      ],
      "name": "hasRole",
      "outputs": [
        {
          "internalType": "bool",
          "name": "",
          "type": "bool"
        }
      ],
      "stateMutability": "view",
      "type": "function"
    },
    {
      "inputs": [
        {
          "internalType": "address",
          "name": "spender",
          "type": "address"
        },
        {
          "internalType": "uint256",
          "name": "addedValue",
          "type": "uint256"
        }
      ],
      "name": "increaseAllowance",
      "outputs": [
        {
          "internalType": "bool",
          "name": "",
          "type": "bool"
        }
      ],
      "stateMutability": "nonpayable",
      "type": "function"
    },
    {
      "inputs": [
        {
          "internalType": "address",
          "name": "token",
          "type": "address"
        }
      ],
      "name": "maxFlashLoan",
      "outputs": [
        {
          "internalType": "uint256",
          "name": "",
          "type": "uint256"
        }
      ],
      "stateMutability": "view",
      "type": "function"
    },
    {
      "inputs": [
        {
          "internalType": "address",
          "name": "beneficiary_",
          "type": "address"
        },
        {
          "internalType": "uint256",
          "name": "amount_",
          "type": "uint256"
        }
      ],
      "name": "mint",
      "outputs": [],
      "stateMutability": "nonpayable",
      "type": "function"
    },
    {
      "inputs": [],
      "name": "name",
      "outputs": [
        {
          "internalType": "string",
          "name": "",
          "type": "string"
        }
      ],
      "stateMutability": "view",
      "type": "function"
    },
    {
      "inputs": [
        {
          "internalType": "address",
          "name": "owner",
          "type": "address"
        }
      ],
      "name": "nonces",
      "outputs": [
        {
          "internalType": "uint256",
          "name": "",
          "type": "uint256"
        }
      ],
      "stateMutability": "view",
      "type": "function"
    },
    {
      "inputs": [],
      "name": "pause",
      "outputs": [],
      "stateMutability": "nonpayable",
      "type": "function"
    },
    {
      "inputs": [],
      "name": "paused",
      "outputs": [
        {
          "internalType": "bool",
          "name": "",
          "type": "bool"
        }
      ],
      "stateMutability": "view",
      "type": "function"
    },
    {
      "inputs": [
        {
          "internalType": "address",
          "name": "owner",
          "type": "address"
        },
        {
          "internalType": "address",
          "name": "spender",
          "type": "address"
        },
        {
          "internalType": "uint256",
          "name": "value",
          "type": "uint256"
        },
        {
          "internalType": "uint256",
          "name": "deadline",
          "type": "uint256"
        },
        {
          "internalType": "uint8",
          "name": "v",
          "type": "uint8"
        },
        {
          "internalType": "bytes32",
          "name": "r",
          "type": "bytes32"
        },
        {
          "internalType": "bytes32",
          "name": "s",
          "type": "bytes32"
        }
      ],
      "name": "permit",
      "outputs": [],
      "stateMutability": "nonpayable",
      "type": "function"
    },
    {
      "inputs": [
        {
          "internalType": "bytes32",
          "name": "role",
          "type": "bytes32"
        },
        {
          "internalType": "address",
          "name": "account",
          "type": "address"
        }
      ],
      "name": "renounceRole",
      "outputs": [],
      "stateMutability": "nonpayable",
      "type": "function"
    },
    {
      "inputs": [
        {
          "internalType": "bytes32",
          "name": "role",
          "type": "bytes32"
        },
        {
          "internalType": "address",
          "name": "account",
          "type": "address"
        }
      ],
      "name": "revokeRole",
      "outputs": [],
      "stateMutability": "nonpayable",
      "type": "function"
    },
    {
      "inputs": [
        {
          "internalType": "bytes4",
          "name": "interfaceId",
          "type": "bytes4"
        }
      ],
      "name": "supportsInterface",
      "outputs": [
        {
          "internalType": "bool",
          "name": "",
          "type": "bool"
        }
      ],
      "stateMutability": "view",
      "type": "function"
    },
    {
      "inputs": [],
      "name": "symbol",
      "outputs": [
        {
          "internalType": "string",
          "name": "",
          "type": "string"
        }
      ],
      "stateMutability": "view",
      "type": "function"
    },
    {
      "inputs": [],
      "name": "totalSupply",
      "outputs": [
        {
          "internalType": "uint256",
          "name": "",
          "type": "uint256"
        }
      ],
      "stateMutability": "view",
      "type": "function"
    },
    {
      "inputs": [
        {
          "internalType": "address",
          "name": "to",
          "type": "address"
        },
        {
          "internalType": "uint256",
          "name": "amount",
          "type": "uint256"
        }
      ],
      "name": "transfer",
      "outputs": [
        {
          "internalType": "bool",
          "name": "",
          "type": "bool"
        }
      ],
      "stateMutability": "nonpayable",
      "type": "function"
    },
    {
      "inputs": [
        {
          "internalType": "address",
          "name": "from",
          "type": "address"
        },
        {
          "internalType": "address",
          "name": "to",
          "type": "address"
        },
        {
          "internalType": "uint256",
          "name": "amount",
          "type": "uint256"
        }
      ],
      "name": "transferFrom",
      "outputs": [
        {
          "internalType": "bool",
          "name": "",
          "type": "bool"
        }
      ],
      "stateMutability": "nonpayable",
      "type": "function"
    },
    {
      "inputs": [],
      "name": "unpause",
      "outputs": [],
      "stateMutability": "nonpayable",
      "type": "function"
    },
    {
      "stateMutability": "payable",
      "type": "receive"
    }
  ],
  "transactionHash": "0x44580788f3c08eade68f87f6e96a16235f9ea7c20a088bc09e36dfa89a0e1ab2",
  "args": [
    "Naira Tethered",
    "NGNC",
    "0xddC3611bD2F73Bd994Be3991Fc11e4E04ca1d4EC"
  ],
  "numDeployments": 1,
  "solcInputHash": "8729e5a4bb3e4fa41aeb55a894d0474b",
  "bytecode": "0x6101406040523480156200001257600080fd5b5060405162003398380380620033988339810160408190526200003591620003e8565b82828180604051806040016040528060018152602001603160f81b8152508484816003908162000066919062000504565b50600462000075828262000504565b50506005805460ff1916905550815160208084019190912082518383012060e08290526101008190524660a0818152604080517f8b73c3c69bb8fe3d512ecc4cf759cc79239f7b179b0ffacaa9a75d522b39400f81880181905281830187905260608201869052608082019490945230818401528151808203909301835260c00190528051940193909320919290916080523060c052610120525050845160408051808201909152600381526232303760e81b60208201529350151591506200015e90505760405162461bcd60e51b8152600401620001559190620005d0565b60405180910390fd5b50805160408051808201909152600381526206460760eb1b6020820152906200019c5760405162461bcd60e51b8152600401620001559190620005d0565b50620001aa60003362000276565b620001d67f65d7a28e3265b37a6474929f336521b332c1681b933f6cb9f3376673440d862a3362000276565b620002027f9f2df0fed2c77648de5860a4cc508cd0818c85b8b8a1ab4ceeef8d981c8956a63362000276565b50506001600955604080518082019091526002815261313760f01b60208201526001600160a01b0382166200024c5760405162461bcd60e51b8152600401620001559190620005d0565b50600a80546001600160a01b0319166001600160a01b039290921691909117905550620006059050565b60008281526006602090815260408083206001600160a01b038516845290915290205460ff16620003175760008281526006602090815260408083206001600160a01b03851684529091529020805460ff19166001179055620002d63390565b6001600160a01b0316816001600160a01b0316837f2f8788117e7eff1d82e926ec794901d17c78024a50270940304540a733656f0d60405160405180910390a45b5050565b634e487b7160e01b600052604160045260246000fd5b60005b838110156200034e57818101518382015260200162000334565b50506000910152565b600082601f8301126200036957600080fd5b81516001600160401b03808211156200038657620003866200031b565b604051601f8301601f19908116603f01168101908282118183101715620003b157620003b16200031b565b81604052838152866020858801011115620003cb57600080fd5b620003de84602083016020890162000331565b9695505050505050565b600080600060608486031215620003fe57600080fd5b83516001600160401b03808211156200041657600080fd5b620004248783880162000357565b945060208601519150808211156200043b57600080fd5b506200044a8682870162000357565b604086015190935090506001600160a01b03811681146200046a57600080fd5b809150509250925092565b600181811c908216806200048a57607f821691505b602082108103620004ab57634e487b7160e01b600052602260045260246000fd5b50919050565b601f821115620004ff57600081815260208120601f850160051c81016020861015620004da5750805b601f850160051c820191505b81811015620004fb57828155600101620004e6565b5050505b505050565b81516001600160401b038111156200052057620005206200031b565b620005388162000531845462000475565b84620004b1565b602080601f831160018114620005705760008415620005575750858301515b600019600386901b1c1916600185901b178555620004fb565b600085815260208120601f198616915b82811015620005a15788860151825594840194600190910190840162000580565b5085821015620005c05787850151600019600388901b60f8161c191681555b5050505050600190811b01905550565b6020815260008251806020840152620005f181604085016020870162000331565b601f01601f19169190910160400192915050565b60805160a05160c05160e0516101005161012051612d43620006556000396000611ce701526000611d3601526000611d1101526000611c6a01526000611c9401526000611cbe0152612d436000f3fe6080604052600436106101e75760003560e01c8063613255ab11610102578063a457c2d711610095578063d547741f11610064578063d547741f146105cf578063d9d98ce4146105ef578063dd62ed3e1461060f578063e63ab1e914610662576101f8565b8063a457c2d71461053b578063a9059cbb1461055b578063d505accf1461057b578063d53913931461059b576101f8565b80638456cb59116100d15780638456cb59146104a957806391d14854146104be57806395d89b4114610511578063a217fddf14610526576101f8565b8063613255ab1461040657806370a082311461042657806379cc6790146104695780637ecebe0014610489576101f8565b80633644e5151161017a57806340c10f191161014957806340c10f191461038e57806342966c68146103ae5780635c975abb146103ce5780635cffe9de146103e6576101f8565b80633644e5151461032457806336568abe1461033957806339509351146103595780633f4ba83a14610379576101f8565b806323b872dd116101b657806323b872dd14610298578063248a9ca3146102b85780632f2ff15d146102e8578063313ce56714610308576101f8565b806301ffc9a71461020257806306fdde0314610237578063095ea7b31461025957806318160ddd14610279576101f8565b366101f8576101f63334610696565b005b6101f63334610696565b34801561020e57600080fd5b5061022261021d366004612770565b610908565b60405190151581526020015b60405180910390f35b34801561024357600080fd5b5061024c6109a1565b60405161022e91906127d6565b34801561026557600080fd5b50610222610274366004612849565b610a33565b34801561028557600080fd5b506002545b60405190815260200161022e565b3480156102a457600080fd5b506102226102b3366004612875565b610a4b565b3480156102c457600080fd5b5061028a6102d33660046128b6565b60009081526006602052604090206001015490565b3480156102f457600080fd5b506101f66103033660046128cf565b610a6f565b34801561031457600080fd5b506040516012815260200161022e565b34801561033057600080fd5b5061028a610a99565b34801561034557600080fd5b506101f66103543660046128cf565b610aa8565b34801561036557600080fd5b50610222610374366004612849565b610b3d565b34801561038557600080fd5b506101f6610b89565b34801561039a57600080fd5b506101f66103a9366004612849565b610bbe565b3480156103ba57600080fd5b506101f66103c93660046128b6565b610bf2565b3480156103da57600080fd5b5060055460ff16610222565b3480156103f257600080fd5b506102226104013660046128ff565b610fa4565b34801561041257600080fd5b5061028a61042136600461299e565b6111e6565b34801561043257600080fd5b5061028a61044136600461299e565b73ffffffffffffffffffffffffffffffffffffffff1660009081526020819052604090205490565b34801561047557600080fd5b506101f6610484366004612849565b611239565b34801561049557600080fd5b5061028a6104a436600461299e565b61124e565b3480156104b557600080fd5b506101f6611279565b3480156104ca57600080fd5b506102226104d93660046128cf565b600091825260066020908152604080842073ffffffffffffffffffffffffffffffffffffffff93909316845291905290205460ff1690565b34801561051d57600080fd5b5061024c6112ab565b34801561053257600080fd5b5061028a600081565b34801561054757600080fd5b50610222610556366004612849565b6112ba565b34801561056757600080fd5b50610222610576366004612849565b611371565b34801561058757600080fd5b506101f66105963660046129bb565b61137f565b3480156105a757600080fd5b5061028a7f9f2df0fed2c77648de5860a4cc508cd0818c85b8b8a1ab4ceeef8d981c8956a681565b3480156105db57600080fd5b506101f66105ea3660046128cf565b61150a565b3480156105fb57600080fd5b5061028a61060a366004612849565b61152f565b34801561061b57600080fd5b5061028a61062a366004612a32565b73ffffffffffffffffffffffffffffffffffffffff918216600090815260016020908152604080832093909416825291909152205490565b34801561066e57600080fd5b5061028a7f65d7a28e3265b37a6474929f336521b332c1681b933f6cb9f3376673440d862a81565b61069e6115a0565b60408051808201909152600381527f31313600000000000000000000000000000000000000000000000000000000006020820152816106f95760405162461bcd60e51b81526004016106f091906127d6565b60405180910390fd5b5060408051808201909152600381527f3230360000000000000000000000000000000000000000000000000000000000602082015273ffffffffffffffffffffffffffffffffffffffff83166107625760405162461bcd60e51b81526004016106f091906127d6565b50600a54604080517f98d5fdca000000000000000000000000000000000000000000000000000000008152905160009273ffffffffffffffffffffffffffffffffffffffff16916398d5fdca9160048083019260209291908290030181865afa1580156107d3573d6000803e3d6000fd5b505050506040513d601f19601f820116820180604052508101906107f79190612a60565b9050600081116040518060400160405280600381526020017f3230320000000000000000000000000000000000000000000000000000000000815250906108515760405162461bcd60e51b81526004016106f091906127d6565b50600061085e83836115f9565b9050600081116040518060400160405280600381526020017f3230330000000000000000000000000000000000000000000000000000000000815250906108b85760405162461bcd60e51b81526004016106f091906127d6565b506108c38482611605565b60405181815233907f0f6798a560793a54c3bcfe86a93cde1e73087d944c0ea20544137d41213968859060200160405180910390a250506109046001600955565b5050565b60007fffffffff0000000000000000000000000000000000000000000000000000000082167f7965db0b00000000000000000000000000000000000000000000000000000000148061099b57507f01ffc9a7000000000000000000000000000000000000000000000000000000007fffffffff000000000000000000000000000000000000000000000000000000008316145b92915050565b6060600380546109b090612a79565b80601f01602080910402602001604051908101604052809291908181526020018280546109dc90612a79565b8015610a295780601f106109fe57610100808354040283529160200191610a29565b820191906000526020600020905b815481529060010190602001808311610a0c57829003601f168201915b5050505050905090565b600033610a418185856116ea565b5060019392505050565b600033610a59858285611869565b610a64858585611926565b506001949350505050565b600082815260066020526040902060010154610a8a81611b52565b610a948383611b5c565b505050565b6000610aa3611c50565b905090565b73ffffffffffffffffffffffffffffffffffffffff81163314610b335760405162461bcd60e51b815260206004820152602f60248201527f416363657373436f6e74726f6c3a2063616e206f6e6c792072656e6f756e636560448201527f20726f6c657320666f722073656c66000000000000000000000000000000000060648201526084016106f0565b6109048282611d84565b33600081815260016020908152604080832073ffffffffffffffffffffffffffffffffffffffff87168452909152812054909190610a419082908690610b84908790612af5565b6116ea565b7f65d7a28e3265b37a6474929f336521b332c1681b933f6cb9f3376673440d862a610bb381611b52565b610bbb611e3f565b50565b7f9f2df0fed2c77648de5860a4cc508cd0818c85b8b8a1ab4ceeef8d981c8956a6610be881611b52565b610a948383611605565b610bfa6115a0565b60408051808201909152600381527f3131370000000000000000000000000000000000000000000000000000000000602082015281610c4c5760405162461bcd60e51b81526004016106f091906127d6565b50336000908152602081905260409020548111156040518060400160405280600181526020017f380000000000000000000000000000000000000000000000000000000000000081525090610cb45760405162461bcd60e51b81526004016106f091906127d6565b5060408051808201909152600381527f3230360000000000000000000000000000000000000000000000000000000000602082015233610d075760405162461bcd60e51b81526004016106f091906127d6565b50600a54604080517f98d5fdca000000000000000000000000000000000000000000000000000000008152905160009273ffffffffffffffffffffffffffffffffffffffff16916398d5fdca9160048083019260209291908290030181865afa158015610d78573d6000803e3d6000fd5b505050506040513d601f19601f82011682018060405250810190610d9c9190612a60565b9050600081116040518060400160405280600381526020017f323032000000000000000000000000000000000000000000000000000000000081525090610df65760405162461bcd60e51b81526004016106f091906127d6565b506000610e038383611ebc565b9050600081116040518060400160405280600481526020017f323033350000000000000000000000000000000000000000000000000000000081525090610e5d5760405162461bcd60e51b81526004016106f091906127d6565b50804710156040518060400160405280600381526020017f323031000000000000000000000000000000000000000000000000000000000081525090610eb65760405162461bcd60e51b81526004016106f091906127d6565b50610ec13384611ec8565b604051600090339083908381818185875af1925050503d8060008114610f03576040519150601f19603f3d011682016040523d82523d6000602084013e610f08565b606091505b50509050806040518060400160405280600381526020017f323035000000000000000000000000000000000000000000000000000000000081525090610f615760405162461bcd60e51b81526004016106f091906127d6565b5060405184815233907fcc16f5dbb4873280815c1ee09dbd06736cffcc184412cf7a71a0fdb75d397ca59060200160405180910390a2505050610bbb6001600955565b6000610faf856111e6565b8411156110245760405162461bcd60e51b815260206004820152602b60248201527f4552433230466c6173684d696e743a20616d6f756e742065786365656473206d60448201527f6178466c6173684c6f616e00000000000000000000000000000000000000000060648201526084016106f0565b6000611030868661152f565b905061103c8786611605565b6040517f23e30c8b0000000000000000000000000000000000000000000000000000000081527f439148f0bbc682ca079e46d6e2c2f0c1e3b820f1a291b069d8882abf8cf18dd99073ffffffffffffffffffffffffffffffffffffffff8916906323e30c8b906110ba9033908b908b9088908c908c90600401612b08565b6020604051808303816000875af11580156110d9573d6000803e3d6000fd5b505050506040513d601f19601f820116820180604052508101906110fd9190612a60565b1461116f5760405162461bcd60e51b8152602060048201526024808201527f4552433230466c6173684d696e743a20696e76616c69642072657475726e207660448201527f616c75650000000000000000000000000000000000000000000000000000000060648201526084016106f0565b60006111858830611180858a612af5565b611869565b8115806111a6575073ffffffffffffffffffffffffffffffffffffffff8116155b156111c3576111be886111b98489612af5565b611ec8565b6111d8565b6111cd8887611ec8565b6111d8888284611926565b506001979650505050505050565b600073ffffffffffffffffffffffffffffffffffffffff8216301461120c57600061099b565b60025461099b907fffffffffffffffffffffffffffffffffffffffffffffffffffffffffffffffff612b8e565b611244823383611869565b6109048282611ec8565b73ffffffffffffffffffffffffffffffffffffffff811660009081526007602052604081205461099b565b7f65d7a28e3265b37a6474929f336521b332c1681b933f6cb9f3376673440d862a6112a381611b52565b610bbb612064565b6060600480546109b090612a79565b33600081815260016020908152604080832073ffffffffffffffffffffffffffffffffffffffff87168452909152812054909190838110156113645760405162461bcd60e51b815260206004820152602560248201527f45524332303a2064656372656173656420616c6c6f77616e63652062656c6f7760448201527f207a65726f00000000000000000000000000000000000000000000000000000060648201526084016106f0565b610a6482868684036116ea565b600033610a41818585611926565b834211156113cf5760405162461bcd60e51b815260206004820152601d60248201527f45524332305065726d69743a206578706972656420646561646c696e6500000060448201526064016106f0565b60007f6e71edae12b1b97f4d1f60370fef10105fa2faae0126114a169c64845d6126c98888886113fe8c6120bf565b60408051602081019690965273ffffffffffffffffffffffffffffffffffffffff94851690860152929091166060840152608083015260a082015260c0810186905260e0016040516020818303038152906040528051906020012090506000611466826120f4565b905060006114768287878761215d565b90508973ffffffffffffffffffffffffffffffffffffffff168173ffffffffffffffffffffffffffffffffffffffff16146114f35760405162461bcd60e51b815260206004820152601e60248201527f45524332305065726d69743a20696e76616c6964207369676e6174757265000060448201526064016106f0565b6114fe8a8a8a6116ea565b50505050505050505050565b60008281526006602052604090206001015461152581611b52565b610a948383611d84565b600073ffffffffffffffffffffffffffffffffffffffff831630146115965760405162461bcd60e51b815260206004820152601b60248201527f4552433230466c6173684d696e743a2077726f6e6720746f6b656e000000000060448201526064016106f0565b60005b9392505050565b6002600954036115f25760405162461bcd60e51b815260206004820152601f60248201527f5265656e7472616e637947756172643a207265656e7472616e742063616c6c0060448201526064016106f0565b6002600955565b60006115998284612ba1565b73ffffffffffffffffffffffffffffffffffffffff82166116685760405162461bcd60e51b815260206004820152601f60248201527f45524332303a206d696e7420746f20746865207a65726f20616464726573730060448201526064016106f0565b61167460008383612185565b80600260008282546116869190612af5565b909155505073ffffffffffffffffffffffffffffffffffffffff8216600081815260208181526040808320805486019055518481527fddf252ad1be2c89b69c2b068fc378daa952ba7f163c4a11628f55a4df523b3ef910160405180910390a35050565b73ffffffffffffffffffffffffffffffffffffffff83166117725760405162461bcd60e51b8152602060048201526024808201527f45524332303a20617070726f76652066726f6d20746865207a65726f2061646460448201527f726573730000000000000000000000000000000000000000000000000000000060648201526084016106f0565b73ffffffffffffffffffffffffffffffffffffffff82166117fb5760405162461bcd60e51b815260206004820152602260248201527f45524332303a20617070726f766520746f20746865207a65726f20616464726560448201527f737300000000000000000000000000000000000000000000000000000000000060648201526084016106f0565b73ffffffffffffffffffffffffffffffffffffffff83811660008181526001602090815260408083209487168084529482529182902085905590518481527f8c5be1e5ebec7d5bd14f71427d1e84f3dd0314c0f7b2291e5b200ac8c7c3b925910160405180910390a3505050565b73ffffffffffffffffffffffffffffffffffffffff8381166000908152600160209081526040808320938616835292905220547fffffffffffffffffffffffffffffffffffffffffffffffffffffffffffffffff811461192057818110156119135760405162461bcd60e51b815260206004820152601d60248201527f45524332303a20696e73756666696369656e7420616c6c6f77616e636500000060448201526064016106f0565b61192084848484036116ea565b50505050565b73ffffffffffffffffffffffffffffffffffffffff83166119af5760405162461bcd60e51b815260206004820152602560248201527f45524332303a207472616e736665722066726f6d20746865207a65726f20616460448201527f647265737300000000000000000000000000000000000000000000000000000060648201526084016106f0565b73ffffffffffffffffffffffffffffffffffffffff8216611a385760405162461bcd60e51b815260206004820152602360248201527f45524332303a207472616e7366657220746f20746865207a65726f206164647260448201527f657373000000000000000000000000000000000000000000000000000000000060648201526084016106f0565b611a43838383612185565b73ffffffffffffffffffffffffffffffffffffffff831660009081526020819052604090205481811015611adf5760405162461bcd60e51b815260206004820152602660248201527f45524332303a207472616e7366657220616d6f756e742065786365656473206260448201527f616c616e6365000000000000000000000000000000000000000000000000000060648201526084016106f0565b73ffffffffffffffffffffffffffffffffffffffff848116600081815260208181526040808320878703905593871680835291849020805487019055925185815290927fddf252ad1be2c89b69c2b068fc378daa952ba7f163c4a11628f55a4df523b3ef910160405180910390a3611920565b610bbb813361218d565b600082815260066020908152604080832073ffffffffffffffffffffffffffffffffffffffff8516845290915290205460ff1661090457600082815260066020908152604080832073ffffffffffffffffffffffffffffffffffffffff85168452909152902080547fffffffffffffffffffffffffffffffffffffffffffffffffffffffffffffff00166001179055611bf23390565b73ffffffffffffffffffffffffffffffffffffffff168173ffffffffffffffffffffffffffffffffffffffff16837f2f8788117e7eff1d82e926ec794901d17c78024a50270940304540a733656f0d60405160405180910390a45050565b60003073ffffffffffffffffffffffffffffffffffffffff7f000000000000000000000000000000000000000000000000000000000000000016148015611cb657507f000000000000000000000000000000000000000000000000000000000000000046145b15611ce057507f000000000000000000000000000000000000000000000000000000000000000090565b50604080517f00000000000000000000000000000000000000000000000000000000000000006020808301919091527f0000000000000000000000000000000000000000000000000000000000000000828401527f000000000000000000000000000000000000000000000000000000000000000060608301524660808301523060a0808401919091528351808403909101815260c0909201909252805191012090565b600082815260066020908152604080832073ffffffffffffffffffffffffffffffffffffffff8516845290915290205460ff161561090457600082815260066020908152604080832073ffffffffffffffffffffffffffffffffffffffff8516808552925280832080547fffffffffffffffffffffffffffffffffffffffffffffffffffffffffffffff0016905551339285917ff6391f5c32d9c69d2a47ea670b442974b53935d1edc7fd64eb21e047a839171b9190a45050565b611e4761222d565b600580547fffffffffffffffffffffffffffffffffffffffffffffffffffffffffffffff001690557f5db9ee0a495bf2e6ff9c91a7834c1ba4fdd244a5e8aa4e537bd38aeae4b073aa335b60405173ffffffffffffffffffffffffffffffffffffffff909116815260200160405180910390a1565b60006115998284612bdc565b73ffffffffffffffffffffffffffffffffffffffff8216611f515760405162461bcd60e51b815260206004820152602160248201527f45524332303a206275726e2066726f6d20746865207a65726f2061646472657360448201527f730000000000000000000000000000000000000000000000000000000000000060648201526084016106f0565b611f5d82600083612185565b73ffffffffffffffffffffffffffffffffffffffff821660009081526020819052604090205481811015611ff95760405162461bcd60e51b815260206004820152602260248201527f45524332303a206275726e20616d6f756e7420657863656564732062616c616e60448201527f636500000000000000000000000000000000000000000000000000000000000060648201526084016106f0565b73ffffffffffffffffffffffffffffffffffffffff83166000818152602081815260408083208686039055600280548790039055518581529192917fddf252ad1be2c89b69c2b068fc378daa952ba7f163c4a11628f55a4df523b3ef910160405180910390a3505050565b61206c612281565b600580547fffffffffffffffffffffffffffffffffffffffffffffffffffffffffffffff001660011790557f62e78cea01bee320cd4e420270b5ea74000d11b0c9f74754ebdbfc544b05a258611e923390565b73ffffffffffffffffffffffffffffffffffffffff811660009081526007602052604090208054600181018255905b50919050565b600061099b612101611c50565b836040517f19010000000000000000000000000000000000000000000000000000000000006020820152602281018390526042810182905260009060620160405160208183030381529060405280519060200120905092915050565b600080600061216e878787876122d4565b9150915061217b816123c3565b5095945050505050565b610a94612281565b600082815260066020908152604080832073ffffffffffffffffffffffffffffffffffffffff8516845290915290205460ff16610904576121cd81612528565b6121d8836020612547565b6040516020016121e9929190612bf3565b604080517fffffffffffffffffffffffffffffffffffffffffffffffffffffffffffffffe08184030181529082905262461bcd60e51b82526106f0916004016127d6565b60055460ff1661227f5760405162461bcd60e51b815260206004820152601460248201527f5061757361626c653a206e6f742070617573656400000000000000000000000060448201526064016106f0565b565b60055460ff161561227f5760405162461bcd60e51b815260206004820152601060248201527f5061757361626c653a207061757365640000000000000000000000000000000060448201526064016106f0565b6000807f7fffffffffffffffffffffffffffffff5d576e7357a4501ddfe92f46681b20a083111561230b57506000905060036123ba565b6040805160008082526020820180845289905260ff881692820192909252606081018690526080810185905260019060a0016020604051602081039080840390855afa15801561235f573d6000803e3d6000fd5b50506040517fffffffffffffffffffffffffffffffffffffffffffffffffffffffffffffffe0015191505073ffffffffffffffffffffffffffffffffffffffff81166123b3576000600192509250506123ba565b9150600090505b94509492505050565b60008160048111156123d7576123d7612c74565b036123df5750565b60018160048111156123f3576123f3612c74565b036124405760405162461bcd60e51b815260206004820152601860248201527f45434453413a20696e76616c6964207369676e6174757265000000000000000060448201526064016106f0565b600281600481111561245457612454612c74565b036124a15760405162461bcd60e51b815260206004820152601f60248201527f45434453413a20696e76616c6964207369676e6174757265206c656e6774680060448201526064016106f0565b60038160048111156124b5576124b5612c74565b03610bbb5760405162461bcd60e51b815260206004820152602260248201527f45434453413a20696e76616c6964207369676e6174757265202773272076616c60448201527f756500000000000000000000000000000000000000000000000000000000000060648201526084016106f0565b606061099b73ffffffffffffffffffffffffffffffffffffffff831660145b60606000612556836002612bdc565b612561906002612af5565b67ffffffffffffffff81111561257957612579612ca3565b6040519080825280601f01601f1916602001820160405280156125a3576020820181803683370190505b5090507f3000000000000000000000000000000000000000000000000000000000000000816000815181106125da576125da612cd2565b60200101907effffffffffffffffffffffffffffffffffffffffffffffffffffffffffffff1916908160001a9053507f78000000000000000000000000000000000000000000000000000000000000008160018151811061263d5761263d612cd2565b60200101907effffffffffffffffffffffffffffffffffffffffffffffffffffffffffffff1916908160001a9053506000612679846002612bdc565b612684906001612af5565b90505b6001811115612721577f303132333435363738396162636465660000000000000000000000000000000085600f16601081106126c5576126c5612cd2565b1a60f81b8282815181106126db576126db612cd2565b60200101907effffffffffffffffffffffffffffffffffffffffffffffffffffffffffffff1916908160001a90535060049490941c9361271a81612d01565b9050612687565b5083156115995760405162461bcd60e51b815260206004820181905260248201527f537472696e67733a20686578206c656e67746820696e73756666696369656e7460448201526064016106f0565b60006020828403121561278257600080fd5b81357fffffffff000000000000000000000000000000000000000000000000000000008116811461159957600080fd5b60005b838110156127cd5781810151838201526020016127b5565b50506000910152565b60208152600082518060208401526127f58160408501602087016127b2565b601f017fffffffffffffffffffffffffffffffffffffffffffffffffffffffffffffffe0169190910160400192915050565b73ffffffffffffffffffffffffffffffffffffffff81168114610bbb57600080fd5b6000806040838503121561285c57600080fd5b823561286781612827565b946020939093013593505050565b60008060006060848603121561288a57600080fd5b833561289581612827565b925060208401356128a581612827565b929592945050506040919091013590565b6000602082840312156128c857600080fd5b5035919050565b600080604083850312156128e257600080fd5b8235915060208301356128f481612827565b809150509250929050565b60008060008060006080868803121561291757600080fd5b853561292281612827565b9450602086013561293281612827565b935060408601359250606086013567ffffffffffffffff8082111561295657600080fd5b818801915088601f83011261296a57600080fd5b81358181111561297957600080fd5b89602082850101111561298b57600080fd5b9699959850939650602001949392505050565b6000602082840312156129b057600080fd5b813561159981612827565b600080600080600080600060e0888a0312156129d657600080fd5b87356129e181612827565b965060208801356129f181612827565b95506040880135945060608801359350608088013560ff81168114612a1557600080fd5b9699959850939692959460a0840135945060c09093013592915050565b60008060408385031215612a4557600080fd5b8235612a5081612827565b915060208301356128f481612827565b600060208284031215612a7257600080fd5b5051919050565b600181811c90821680612a8d57607f821691505b6020821081036120ee577f4e487b7100000000000000000000000000000000000000000000000000000000600052602260045260246000fd5b7f4e487b7100000000000000000000000000000000000000000000000000000000600052601160045260246000fd5b8082018082111561099b5761099b612ac6565b600073ffffffffffffffffffffffffffffffffffffffff808916835280881660208401525085604083015284606083015260a060808301528260a0830152828460c0840137600060c0848401015260c07fffffffffffffffffffffffffffffffffffffffffffffffffffffffffffffffe0601f8501168301019050979650505050505050565b8181038181111561099b5761099b612ac6565b600082612bd7577f4e487b7100000000000000000000000000000000000000000000000000000000600052601260045260246000fd5b500490565b808202811582820484141761099b5761099b612ac6565b7f416363657373436f6e74726f6c3a206163636f756e7420000000000000000000815260008351612c2b8160178501602088016127b2565b7f206973206d697373696e6720726f6c65200000000000000000000000000000006017918401918201528351612c688160288401602088016127b2565b01602801949350505050565b7f4e487b7100000000000000000000000000000000000000000000000000000000600052602160045260246000fd5b7f4e487b7100000000000000000000000000000000000000000000000000000000600052604160045260246000fd5b7f4e487b7100000000000000000000000000000000000000000000000000000000600052603260045260246000fd5b600081612d1057612d10612ac6565b507fffffffffffffffffffffffffffffffffffffffffffffffffffffffffffffffff019056fea164736f6c6343000811000a",
  "devdoc": {
    "kind": "dev",
    "methods": {
      "DOMAIN_SEPARATOR()": {
        "details": "See {IERC20Permit-DOMAIN_SEPARATOR}."
      },
      "allowance(address,address)": {
        "details": "See {IERC20-allowance}."
      },
      "approve(address,uint256)": {
        "details": "See {IERC20-approve}. NOTE: If `amount` is the maximum `uint256`, the allowance is not updated on `transferFrom`. This is semantically equivalent to an infinite approval. Requirements: - `spender` cannot be the zero address."
      },
      "balanceOf(address)": {
        "details": "See {IERC20-balanceOf}."
      },
      "burn(uint256)": {
        "params": {
          "amount_": "The amount of the asset to burn"
        }
      },
      "burnFrom(address,uint256)": {
        "details": "Destroys `amount` tokens from `account`, deducting from the caller's allowance. See {ERC20-_burn} and {ERC20-allowance}. Requirements: - the caller must have allowance for ``accounts``'s tokens of at least `amount`."
      },
      "decimals()": {
        "details": "Returns the number of decimals used to get its user representation. For example, if `decimals` equals `2`, a balance of `505` tokens should be displayed to a user as `5.05` (`505 / 10 ** 2`). Tokens usually opt for a value of 18, imitating the relationship between Ether and Wei. This is the value {ERC20} uses, unless this function is overridden; NOTE: This information is only used for _display_ purposes: it in no way affects any of the arithmetic of the contract, including {IERC20-balanceOf} and {IERC20-transfer}."
      },
      "decreaseAllowance(address,uint256)": {
        "details": "Atomically decreases the allowance granted to `spender` by the caller. This is an alternative to {approve} that can be used as a mitigation for problems described in {IERC20-approve}. Emits an {Approval} event indicating the updated allowance. Requirements: - `spender` cannot be the zero address. - `spender` must have allowance for the caller of at least `subtractedValue`."
      },
      "flashFee(address,uint256)": {
        "details": "Returns the fee applied when doing flash loans. This function calls the {_flashFee} function which returns the fee applied when doing flash loans.",
        "params": {
          "amount": "The amount of tokens to be loaned.",
          "token": "The token to be flash loaned."
        },
        "returns": {
          "_0": "The fees applied to the corresponding flash loan."
        }
      },
      "flashLoan(address,address,uint256,bytes)": {
        "details": "Performs a flash loan. New tokens are minted and sent to the `receiver`, who is required to implement the {IERC3156FlashBorrower} interface. By the end of the flash loan, the receiver is expected to own amount + fee tokens and have them approved back to the token contract itself so they can be burned.",
        "params": {
          "amount": "The amount of tokens to be loaned.",
          "data": "An arbitrary datafield that is passed to the receiver.",
          "receiver": "The receiver of the flash loan. Should implement the {IERC3156FlashBorrower-onFlashLoan} interface.",
          "token": "The token to be flash loaned. Only `address(this)` is supported."
        },
        "returns": {
          "_0": "`true` if the flash loan was successful."
        }
      },
      "getRoleAdmin(bytes32)": {
        "details": "Returns the admin role that controls `role`. See {grantRole} and {revokeRole}. To change a role's admin, use {_setRoleAdmin}."
      },
      "grantRole(bytes32,address)": {
        "details": "Grants `role` to `account`. If `account` had not been already granted `role`, emits a {RoleGranted} event. Requirements: - the caller must have ``role``'s admin role. May emit a {RoleGranted} event."
      },
      "hasRole(bytes32,address)": {
        "details": "Returns `true` if `account` has been granted `role`."
      },
      "increaseAllowance(address,uint256)": {
        "details": "Atomically increases the allowance granted to `spender` by the caller. This is an alternative to {approve} that can be used as a mitigation for problems described in {IERC20-approve}. Emits an {Approval} event indicating the updated allowance. Requirements: - `spender` cannot be the zero address."
      },
      "maxFlashLoan(address)": {
        "details": "Returns the maximum amount of tokens available for loan.",
        "params": {
          "token": "The address of the token that is requested."
        },
        "returns": {
          "_0": "The amount of token that can be loaned."
        }
      },
      "mint(address,uint256)": {
        "params": {
          "amount_": "The amount of tokens to mint.",
          "beneficiary_": "The address that receives the minted tokens."
        }
      },
      "name()": {
        "details": "Returns the name of the token."
      },
      "nonces(address)": {
        "details": "See {IERC20Permit-nonces}."
      },
      "paused()": {
        "details": "Returns true if the contract is paused, and false otherwise."
      },
      "permit(address,address,uint256,uint256,uint8,bytes32,bytes32)": {
        "details": "See {IERC20Permit-permit}."
      },
      "renounceRole(bytes32,address)": {
        "details": "Revokes `role` from the calling account. Roles are often managed via {grantRole} and {revokeRole}: this function's purpose is to provide a mechanism for accounts to lose their privileges if they are compromised (such as when a trusted device is misplaced). If the calling account had been revoked `role`, emits a {RoleRevoked} event. Requirements: - the caller must be `account`. May emit a {RoleRevoked} event."
      },
      "revokeRole(bytes32,address)": {
        "details": "Revokes `role` from `account`. If `account` had been granted `role`, emits a {RoleRevoked} event. Requirements: - the caller must have ``role``'s admin role. May emit a {RoleRevoked} event."
      },
      "supportsInterface(bytes4)": {
        "details": "See {IERC165-supportsInterface}."
      },
      "symbol()": {
        "details": "Returns the symbol of the token, usually a shorter version of the name."
      },
      "totalSupply()": {
        "details": "See {IERC20-totalSupply}."
      },
      "transfer(address,uint256)": {
        "details": "See {IERC20-transfer}. Requirements: - `to` cannot be the zero address. - the caller must have a balance of at least `amount`."
      },
      "transferFrom(address,address,uint256)": {
        "details": "See {IERC20-transferFrom}. Emits an {Approval} event indicating the updated allowance. This is not required by the EIP. See the note at the beginning of {ERC20}. NOTE: Does not update the allowance if the current allowance is the maximum `uint256`. Requirements: - `from` and `to` cannot be the zero address. - `from` must have a balance of at least `amount`. - the caller must have allowance for ``from``'s tokens of at least `amount`."
      }
    },
    "version": 1
  },
  "userdoc": {
    "kind": "user",
    "methods": {
      "burn(uint256)": {
        "notice": "Burns a certain amount of the specified asset"
      },
      "mint(address,uint256)": {
        "notice": "Mints a certain amount of the tokens."
      },
      "pause()": {
        "notice": "Pauses the token."
      },
      "unpause()": {
        "notice": "Unpauses the token."
      }
    },
    "version": 1
  },
  "storageLayout": {
    "storage": [
      {
        "astId": 624,
        "contract": "contracts/protocol/tokens/NAFERC20.sol:NAFERC20",
        "label": "_balances",
        "offset": 0,
        "slot": "0",
        "type": "t_mapping(t_address,t_uint256)"
      },
      {
        "astId": 630,
        "contract": "contracts/protocol/tokens/NAFERC20.sol:NAFERC20",
        "label": "_allowances",
        "offset": 0,
        "slot": "1",
        "type": "t_mapping(t_address,t_mapping(t_address,t_uint256))"
      },
      {
        "astId": 632,
        "contract": "contracts/protocol/tokens/NAFERC20.sol:NAFERC20",
        "label": "_totalSupply",
        "offset": 0,
        "slot": "2",
        "type": "t_uint256"
      },
      {
        "astId": 634,
        "contract": "contracts/protocol/tokens/NAFERC20.sol:NAFERC20",
        "label": "_name",
        "offset": 0,
        "slot": "3",
        "type": "t_string_storage"
      },
      {
        "astId": 636,
        "contract": "contracts/protocol/tokens/NAFERC20.sol:NAFERC20",
        "label": "_symbol",
        "offset": 0,
        "slot": "4",
        "type": "t_string_storage"
      },
      {
        "astId": 464,
        "contract": "contracts/protocol/tokens/NAFERC20.sol:NAFERC20",
        "label": "_paused",
        "offset": 0,
        "slot": "5",
        "type": "t_bool"
      },
      {
        "astId": 24,
        "contract": "contracts/protocol/tokens/NAFERC20.sol:NAFERC20",
        "label": "_roles",
        "offset": 0,
        "slot": "6",
        "type": "t_mapping(t_bytes32,t_struct(RoleData)19_storage)"
      },
      {
        "astId": 1582,
        "contract": "contracts/protocol/tokens/NAFERC20.sol:NAFERC20",
        "label": "_nonces",
        "offset": 0,
        "slot": "7",
        "type": "t_mapping(t_address,t_struct(Counter)1795_storage)"
      },
      {
        "astId": 1590,
        "contract": "contracts/protocol/tokens/NAFERC20.sol:NAFERC20",
        "label": "_PERMIT_TYPEHASH_DEPRECATED_SLOT",
        "offset": 0,
        "slot": "8",
        "type": "t_bytes32"
      },
      {
        "astId": 565,
        "contract": "contracts/protocol/tokens/NAFERC20.sol:NAFERC20",
        "label": "_status",
        "offset": 0,
        "slot": "9",
        "type": "t_uint256"
      },
      {
        "astId": 4467,
        "contract": "contracts/protocol/tokens/NAFERC20.sol:NAFERC20",
        "label": "_priceOracle",
        "offset": 0,
        "slot": "10",
        "type": "t_contract(IPriceOracle)3802"
      }
    ],
    "types": {
      "t_address": {
        "encoding": "inplace",
        "label": "address",
        "numberOfBytes": "20"
      },
      "t_bool": {
        "encoding": "inplace",
        "label": "bool",
        "numberOfBytes": "1"
      },
      "t_bytes32": {
        "encoding": "inplace",
        "label": "bytes32",
        "numberOfBytes": "32"
      },
      "t_contract(IPriceOracle)3802": {
        "encoding": "inplace",
        "label": "contract IPriceOracle",
        "numberOfBytes": "20"
      },
      "t_mapping(t_address,t_bool)": {
        "encoding": "mapping",
        "key": "t_address",
        "label": "mapping(address => bool)",
        "numberOfBytes": "32",
        "value": "t_bool"
      },
      "t_mapping(t_address,t_mapping(t_address,t_uint256))": {
        "encoding": "mapping",
        "key": "t_address",
        "label": "mapping(address => mapping(address => uint256))",
        "numberOfBytes": "32",
        "value": "t_mapping(t_address,t_uint256)"
      },
      "t_mapping(t_address,t_struct(Counter)1795_storage)": {
        "encoding": "mapping",
        "key": "t_address",
        "label": "mapping(address => struct Counters.Counter)",
        "numberOfBytes": "32",
        "value": "t_struct(Counter)1795_storage"
      },
      "t_mapping(t_address,t_uint256)": {
        "encoding": "mapping",
        "key": "t_address",
        "label": "mapping(address => uint256)",
        "numberOfBytes": "32",
        "value": "t_uint256"
      },
      "t_mapping(t_bytes32,t_struct(RoleData)19_storage)": {
        "encoding": "mapping",
        "key": "t_bytes32",
        "label": "mapping(bytes32 => struct AccessControl.RoleData)",
        "numberOfBytes": "32",
        "value": "t_struct(RoleData)19_storage"
      },
      "t_string_storage": {
        "encoding": "bytes",
        "label": "string",
        "numberOfBytes": "32"
      },
      "t_struct(Counter)1795_storage": {
        "encoding": "inplace",
        "label": "struct Counters.Counter",
        "members": [
          {
            "astId": 1794,
            "contract": "contracts/protocol/tokens/NAFERC20.sol:NAFERC20",
            "label": "_value",
            "offset": 0,
            "slot": "0",
            "type": "t_uint256"
          }
        ],
        "numberOfBytes": "32"
      },
      "t_struct(RoleData)19_storage": {
        "encoding": "inplace",
        "label": "struct AccessControl.RoleData",
        "members": [
          {
            "astId": 16,
            "contract": "contracts/protocol/tokens/NAFERC20.sol:NAFERC20",
            "label": "members",
            "offset": 0,
            "slot": "0",
            "type": "t_mapping(t_address,t_bool)"
          },
          {
            "astId": 18,
            "contract": "contracts/protocol/tokens/NAFERC20.sol:NAFERC20",
            "label": "adminRole",
            "offset": 0,
            "slot": "1",
            "type": "t_bytes32"
          }
        ],
        "numberOfBytes": "64"
      },
      "t_uint256": {
        "encoding": "inplace",
        "label": "uint256",
        "numberOfBytes": "32"
      }
    }
  }
}